:02000000422894
:100008007E1480314E010D1E0A280B283D28332806
:100018004E010D1E10281128322842011908F0003F
:1000280040016608203E8600870170088100013083
:10003800E6070030E73D42019D1C232824282B2891
:100048001D121D16FF304001E600FF30E7000A30A0
:100058007006031D3028312832283D2864000030FE
:1000680040016702463003196602031C3C283D28FC
:0E0078000C288431002480317E100900012CF8
:020400000800F2
:100500000130F1000030F200F430F3000130F4006B
:080510008431B124823108009E
:100800000800FC012030840000308500483085312C
:100810001C2584317E1040010D2C053051019300C0
:1008200040010D137E014313400113138D128D13EC
:100830007E01C312C313400193169313003042018B
:100840009C0067309B0006307E019D0005309F00B4
:1008500042011E121E171E141E159E169D171D16F0
:100860004E0117160B178B1782310022843140017D
:100870006708803AE80080306802031D412C01308F
:100880006602031C442C452C992C0130F1000030E9
:10089000F2006430F3000030F4008431B12484317C
:1008A000892C06308531092584317C14952C06303D
:1008B0008531092584317C10952C8B1350011E1332
:1008C0004001210850019B004001220850019A007C
:1008D0001E161E158531152584318B1750011E11EA
:1008E0000630853109258431952C7C1C782C792C97
:1008F000952C81308531092584310230F10000309A
:10090000F2006430F3000030F4008431B12484310B
:10091000952C40012008813A0319512C033A031900
:10092000572C013A03195D2C752C4001E601E701B3
:10093000A62C4001660A031DA12C670A031DA12CE9
:10094000A22CA62C12308531092584317C1CA92CBF
:10095000AA2CAB2CAE2C8231802284316400372C3F
:100960004228F601F701FA2C40010D17F801F901B0
:10097000C72C0830F500CB306400890BBC2CF50B7C
:10098000BC2C640000000130F8070030F93D790804
:10099000803AF5007408803A7502031DD12C730863
:1009A0007802031CD42CD52CB92C40010D13FA016C
:1009B000FB01E82C0830F500CB306400890BDD2CFE
:1009C000F50BDD2C640000000130FA070030FB3D20
:1009D0007B08803AF5007408803A7502031DF22CFA
:1009E00073087A02031CF52CF62CDA2C0130F6077A
:1009F0000030F73D7708803AF5007208803A7502BA
:100A0000031D042D71087602031C072D082DB42C3C
:100A10000800F1000C2D64004E018D1D102D112DCC
:100A20000B2D710842019A000800553050019F00BB
:100A3000AA309F009E140800640080010131890BD8
:040A40001D2D003434
:020000040001F9
:04000E00CF3FE73FBA
:02001400F73FB4
:00000001FF
